:100000000C9463000C948B000C948B000C948B006C
:100010000C948B000C948B000C948B000C948B0034
:100020000C948B000C948B000C948B000C948B0024
:100030000C948B000C948B000C948B000C948B0014
:100040000C9434030C948B000C94D0040C941E0577
:100050000C948B000C948B000C948B000C948B00F4
:100060000C948B000C948B000000000024002700EF
:100070002A0000000000250028002B0000000000DE
:1000800023002600290004040404040404040202DA
:100090000202020203030303030301020408102007
:1000A0004080010204081020010204081020000012
:1000B0000007000201000003040600000000000029
:1000C00000008D008A0611241FBECFEFD8E0DEBFEE
:1000D000CDBF11E0A0E0B1E0ECE3F1E102C005909A
:1000E0000D92A434B107D9F712E0A4E4B1E001C045
:1000F0001D92AC30B107E1F710E0C6ECD0E004C0CF
:100100002297FE010E949808C23CD107C9F70E94BD
:10011000E0060C949C080C940000CF92EF920F9391
:1001200084E491E06CE04BE025E004E053E0E52E50
:1001300032E0C32E0E94FB020F91EF90CF90089502
:100140008F929F92AF92BF92CF92DF92EF92FF92E7
:100150000F931F938EE00E941A048C018FE00E947F
:100160001A049C01C80162E070E00E944D08B62E9E
:10017000A72EC90162E070E00E944D08962E872EDE
:1001800004E411E0C80160E040E00E940E0270E06B
:10019000C72E71E0D72EC801B6010E942B08C801F6
:1001A0006B2D7A2D4AE050E00E94F907C80160E00B
:1001B00041E00E940E0267E0E62E61E0F62EC801E3
:1001C000B7010E942B08C801692D782D4AE050E044
:1001D0000E94F9070AEE11E0C801B6010E942B083F
:1001E000C8016B2D7A2D4AE050E00E94F907C80142
:1001F000B7010E942B08C801692D782D4AE050E014
:100200000E940C0864EF71E080E090E00E947C03A3
:100210001F910F91FF90EF90DF90CF90BF90AF9024
:100220009F908F9008950F931F9304E411E0C801ED
:1002300060E142E020E00E9445028AEE91E040E861
:1002400055E260E070E00E94590589E061E00E949B
:100250003C04C8016EE071E00E942B08C80160E018
:1002600041E00E940E02C8016BE171E00E942B0880
:1002700068EE73E080E090E00E947C03C8010E9479
:100280003D021F910F9108950F931F938C01FC0164
:10029000868160E00E947B0481E090E00E94D503AB
:1002A000F801868161E00E947B0481E090E00E9479
:1002B000D503F801868160E00E947B0484E690E02B
:1002C0000E94D5031F910F910895CF92DF92EF9274
:1002D000FF920F931F93CF93DF93D82EC92E282F11
:1002E000392FC9018C01C0E0D0E0E62EFF24F801CF
:1002F000878161E00E943C04B7010C2E02C0759515
:1003000067950A94E2F76170F80187810E947B0487
:1003100021960F5F1F4FC830D10549F78D2D9C2DB9
:100320000E944401DF91CF911F910F91FF90EF90B8
:10033000DF90CF900895CF92DF92EF92FF920F93CC
:100340001F93CF93DF93D82EC92E282F392FC901A1
:100350008C01C0E0D0E0E62EFF24F801878161E047
:100360000E943C04B7010C2E02C0759567950A9453
:10037000E2F76170F80187810E947B0421960F5F8C
:100380001F4FC430D10549F78D2D9C2D0E9444018B
:10039000DF91CF911F910F91FF90EF90DF90CF9061
:1003A00008951F93CF93DF93EC01162F8C81642F58
:1003B0000E947B048D818F3F19F060E00E947B04D6
:1003C0008F8584FF05C0CE01612F0E9465010EC09C
:1003D000612F70E084E0759567958A95E1F7CE010D
:1003E0000E949B01CE01612F0E949B01DF91CF9162
:1003F0001F91089541E00E94D10181E090E00895AD
:1004000040E00E94D1010895FC016089862F84603C
:10041000808B6C60CF010E9400020895DF93CF9320
:10042000CDB7DEB728970FB6F894DEBF0FBECDBFAD
:100430009C01FE013196ABE2B1E088E00D900192A3
:100440008150E1F7F9018389481710F0482F415096
:10045000E42FF0E0EE0FFF1FEC0FFD1F8181680F0E
:100460006068C9010E94000228960FB6F894DEBFAA
:100470000FBECDBFCF91DF91089561E00E940002D1
:1004800080ED97E00E94D5030895CF93DF93EC01B0
:10049000423018F08F8588608F874B8B1C8A22230F
:1004A00029F0413019F48F8584608F8780E593ECC3
:1004B0000E94D5038C8160E00E947B048E8160E005
:1004C0000E947B048D818F3F19F060E00E947B04C5
:1004D0006F8564FD1DC0CE0163E00E949B0184E92D
:1004E00091E10E94D503CE0163E00E949B0184E963
:1004F00091E10E94D503CE0163E00E949B0186E951
:1005000090E00E94D503CE0162E00E949B0116C0DC
:100510006062CE010E94000284E991E10E94D5034D
:100520006F856062CE010E94000286E990E00E9421
:10053000D5036F856062CE010E9400026F85606204
:10054000CE010E94000284E0888BCE010E9404024A
:10055000CE010E943D0282E0898BCE0166E00E94BE
:100560000002DF91CF9108956F927F928F92AF92A8
:10057000CF92EF920F931F93DF93CF93CDB7DEB758
:100580003C01162F842FF301448325830683E782E1
:10059000C086A18682869D8593879E8594879F8548
:1005A00095879889968761E00E943C04F3018581D4
:1005B0008F3F19F061E00E943C04F301868161E005
:1005C0000E943C04112319F0F301178603C080E157
:1005D000F3018787C30160E141E020E00E9445020A
:1005E000CF91DF911F910F91EF90CF90AF908F90AF
:1005F0007F906F9008958F92AF92CF92EF920F936A
:100600001F93CF93DF93DC01362F542F722F102FBF
:10061000AE2C8C2C13961C921E92129787E291E0BE
:1006200011969C938E9300D000D0EDB7FEB7319613
:10063000CDB7DEB71982118212821382CD0161E03B
:10064000432F2FEF052FE72EC12E0E94B4020F90EB
:100650000F900F900F90DF91CF911F910F91EF901E
:10066000CF90AF908F9008951F920F920FB60F9278
:1006700011242F933F938F939F93AF93BF938091B8
:100680005D0190915E01A0915F01B0916001309198
:1006900061010196A11DB11D232F2D5F2D3720F083
:1006A0002D570196A11DB11D2093610180935D011D
:1006B00090935E01A0935F01B09360018091590116
:1006C00090915A01A0915B01B0915C010196A11D2E
:1006D000B11D8093590190935A01A0935B01B0938F
:1006E0005C01BF91AF919F918F913F912F910F909E
:1006F0000FBE0F901F9018959B01AC017FB7F89427
:100700008091590190915A01A0915B01B0915C01D7
:1007100066B5A89B05C06F3F19F00196A11DB11DDC
:100720007FBFBA2FA92F982F8827860F911DA11D53
:10073000B11D62E0880F991FAA1FBB1F6A95D1F7F0
:10074000BC012DC0FFB7F8948091590190915A01D6
:10075000A0915B01B0915C01E6B5A89B05C0EF3F9D
:1007600019F00196A11DB11DFFBFBA2FA92F982F17
:1007700088278E0F911DA11DB11DE2E0880F991FE2
:10078000AA1FBB1FEA95D1F7861B970B885E934083
:10079000C8F2215030404040504068517C4F2115F4
:1007A00031054105510571F60895019739F0880F1B
:1007B000991F880F991F02970197F1F70895789470
:1007C00084B5826084BD84B5816084BD85B5826056
:1007D00085BD85B5816085BDEEE6F0E080818160F4
:1007E0008083E1E8F0E010828081826080838081F4
:1007F00081608083E0E8F0E0808181608083E1EBCC
:10080000F0E0808184608083E0EBF0E080818160B3
:100810008083EAE7F0E08081846080838081826069
:100820008083808181608083808180688083109252
:10083000C1000895982F8E3008F09E5097708091D7
:1008400022018295880F880F807C892B80937C0001
:1008500080917A00806480937A0080917A0086FD8E
:10086000FCCF2091780040917900942F80E030E017
:10087000282B392BC9010895CF93DF93482F50E0DF
:10088000CA0186569F4FFC0134914A575F4FFA01C7
:100890008491882369F190E0880F991FFC01E85941
:1008A000FF4FA591B491FC01EE58FF4FC591D49133
:1008B000662351F42FB7F8948C91932F9095892348
:1008C0008C93888189230BC0623061F42FB7F89430
:1008D0008C91932F909589238C938881832B888387
:1008E0002FBF06C09FB7F8948C91832B8C939FBF2A
:1008F000DF91CF910895482F50E0CA0182559F4F54
:10090000FC012491CA0186569F4FFC0194914A57DD
:100910005F4FFA013491332309F440C0222351F18F
:10092000233071F0243028F42130A1F0223011F569
:1009300014C02630B1F02730C1F02430D9F404C0FF
:10094000809180008F7703C0809180008F7D80939D
:10095000800010C084B58F7702C084B58F7D84BDC0
:1009600009C08091B0008F7703C08091B0008F7D67
:100970008093B000E32FF0E0EE0FFF1FEE58FF4F23
:10098000A591B4912FB7F894662321F48C9190959A
:10099000892302C08C91892B8C932FBF08950895D1
:1009A0001F920F920FB60F9211242F933F934F93E4
:1009B0008F939F93EF93FF938091C00082FD1DC0A2
:1009C0004091C6002091A2013091A3012F5F3F4FBB
:1009D0002F7330708091A4019091A50128173907D9
:1009E00071F0E091A201F091A301EE59FE4F408316
:1009F0003093A3012093A20102C08091C600FF9111
:100A0000EF919F918F914F913F912F910F900FBE3A
:100A10000F901F901895E091F601F091F701E05CBE
:100A2000FF4F8191919120813181821B930B8F73B4
:100A30009070892B11F00E94CF0408951F920F929D
:100A40000FB60F9211242F933F938F939F93EF93A1
:100A5000FF932091E6013091E7018091E8019091A8
:100A6000E9012817390731F48091C1008F7D809307
:100A7000C10014C0E091E801F091E901EA55FE4F90
:100A800020818091E8019091E90101968F73907027
:100A90009093E9018093E8012093C600FF91EF91C4
:100AA0009F918F913F912F910F900FBE0F901F90AC
:100AB0001895AF92BF92DF92EF92FF920F931F9320
:100AC000CF93DF93EC017A018B01DD24403081EE7E
:100AD000580780E0680780E0780711F0DD24D394A0
:100AE00091E0A92EB12CEC89FD89DD2069F0C501CA
:100AF00008A002C0880F991F0A94E2F7808360E083
:100B000079E08DE390E005C0108260E874E88EE142
:100B100090E0A80197010E946008215030404040B9
:100B20005040569547953795279580E120303807F6
:100B300020F0DD2011F0DD24D6CFE889F98930835B
:100B4000EA89FB89208319A2EE89FF89408121E08F
:100B500030E0C9010C8C02C0880F991F0A94E2F79B
:100B6000482B4083EE89FF894081C9010D8C02C06A
:100B7000880F991F0A94E2F7482B4083EE89FF897A
:100B80004081C9010E8C02C0880F991F0A94E2F7B8
:100B9000482B4083EE89FF8980810F8C02C0220F91
:100BA000331F0A94E2F7209528232083DF91CF9109
:100BB0001F910F91FF90EF90DF90BF90AF9008953D
:100BC000DC011C96ED91FC911D97E05CFF4F21919B
:100BD000319180819181281B390B2F733070C901AD
:100BE0000895DC011C96ED91FC911D97E05CFF4F90
:100BF00020813181E054F040DF01AE5BBF4F8D9129
:100C00009C9111972817390719F42FEF3FEF07C070
:100C10008D919C91E80FF91F8081282F30E0C90148
:100C20000895DC011C96ED91FC911D97E05CFF4F4F
:100C300020813181E054F040DF01AE5BBF4F8D91E8
:100C40009C9111972817390719F42FEF3FEF10C027
:100C50008D919C911197E80FF91F20818D919C91A6
:100C6000119701968F73907011969C938E9330E03C
:100C7000C9010895DC0191968C919197882339F0F0
:100C80005496ED91FC915597808186FFF9CF91960E
:100C90001C920895CF93DF93EC01EE85FF85E05C15
:100CA000FF4F20813181E054F0402F5F3F4F2F7381
:100CB0003070DF01AE5BBF4F8D919C91119728176B
:100CC0003907D1F3E05CFF4F80819181E054F0401F
:100CD000E80FF91F6083EE85FF85E05CFF4F3183ED
:100CE0002083EE89FF89208181E090E00F8C02C093
:100CF000880F991F0A94E2F7282B208381E089A3AB
:100D0000EC89FD8980818064808381E090E0DF91BF
:100D1000CF9108951092ED011092EC0188EE93E0CE
:100D2000A0E0B0E08093EE019093EF01A093F0017A
:100D3000B093F10187E391E09093EB018093EA0196
:100D400082E691E09093F7018093F60186EA91E0C4
:100D50009093F9018093F80185EC90E09093FB016A
:100D60008093FA0184EC90E09093FD018093FC0164
:100D700080EC90E09093FF018093FE0181EC90E085
:100D8000909301028093000282EC90E09093030222
:100D90008093020286EC90E0909305028093040217
:100DA00084E08093060283E08093070287E08093CB
:100DB000080285E08093090281E080930A02089589
:100DC000CF93DF930E94DF030E941301CBE0D5E0B5
:100DD0000E94A0002097E1F30E940B05F9CFCF926B
:100DE000DF92EF92FF920F931F93CF93DF937C01DB
:100DF0006B018A01C0E0D0E00FC0D6016D916D019A
:100E0000D701ED91FC910190F081E02DC70109958A
:100E1000C80FD91F015010400115110571F7CE01FF
:100E2000DF91CF911F910F91FF90EF90DF90CF90C6
:100E30000895EF92FF920F931F938C01DC01ED91C7
:100E4000FC910190F081E02D6DE009957C01D801C5
:100E5000ED91FC910190F081E02DC8016AE00995C7
:100E60009C012E0D3F1DC9011F910F91FF90EF9026
:100E70000895CF93DF93EC016115710519F420E01B
:100E800030E00FC0DB010D900020E9F71197A61BA1
:100E9000B70BE881F9810280F381E02DAD0109955E
:100EA0009C01C901DF91CF9108954F925F927F928B
:100EB0008F929F92AF92BF92CF92DF92EF92FF926A
:100EC0000F931F93DF93CF93CDB7DEB7A1970FB6E4
:100ED000F894DEBF0FBECDBF2C01742ECB012230A3
:100EE00008F42AE019A231E2C32ED12CCC0EDD1E6B
:100EF000822E9924AA24BB24672D752FA501940165
:100F00000E94600879018A01C801B701A501940116
:100F10000E942E08472D461B0894C108D1084A306C
:100F200014F4405D01C0495CF6014083E114F10412
:100F30000105110521F07E2C5F2DC801DDCFC20116
:100F4000B6010E943907A1960FB6F894DEBF0FBE16
:100F5000CDBFCF91DF911F910F91FF90EF90DF9068
:100F6000CF90BF90AF909F908F907F905F904F9069
:100F70000895CF92DF92EF92FF920F931F93CF933A
:100F8000DF93EC016A017B012115310541F4E88111
:100F9000F9810190F081E02D642F09951FC02A305E
:100FA0003105D1F477FF17C0E881F9810190F08114
:100FB000E02D6DE209958C0144275527BA014C19A3
:100FC0005D096E097F09CE012AE00E94550798014C
:100FD000280F391F04C02AE00E9455079C01C9014F
:100FE000DF91CF911F910F91FF90EF90DF90CF9005
:100FF0000895EF92FF920F931F937B019A010027B0
:10100000F7FC0095102FB801A7010E94B9071F91A6
:101010000F91FF90EF900895CF92DF92EF92FF92A1
:101020000F931F936C017B019A010027F7FC009539
:10103000102FB801A7010E94B9078C01C6010E94B8
:101040001907080F191FC8011F910F91FF90EF900A
:10105000DF90CF9008950E9439070895629FD001D4
:10106000739FF001829FE00DF11D649FE00DF11D63
:10107000929FF00D839FF00D749FF00D659FF00D12
:101080009927729FB00DE11DF91F639FB00DE11DFF
:10109000F91FBD01CF011124089597FB092E0726E2
:1010A0000AD077FD04D02ED006D000201AF4709517
:1010B00061957F4F0895F6F7909581959F4F08951C
:1010C000A1E21A2EAA1BBB1BFD010DC0AA1FBB1F4C
:1010D000EE1FFF1FA217B307E407F50720F0A21BBE
:1010E000B30BE40BF50B661F771F881F991F1A942B
:1010F00069F760957095809590959B01AC01BD0155
:10110000CF010895AA1BBB1B51E107C0AA1FBB1F3B
:10111000A617B70710F0A61BB70B881F991F5A9583
:10112000A9F780959095BC01CD010895EE0FFF1FA2
:0C1130000590F491E02D0994F894FFCF95
:10113C0054454D50313A0054454D50323A004C4DC7
:10114C0033352052454144494E47005379737465F9
:10115C006D000100000000FA01EF060000400014D1
:10116C00005400000000004A06EF06E0051106F1ED
:04117C00053A06002A
:00000001FF
