:100000000C9463000C948B000C948B000C948B006C
:100010000C948B000C948B000C948B000C948B0034
:100020000C948B000C948B000C948B000C948B0024
:100030000C948B000C948B000C948B000C948B0014
:100040000C941E030C948B000C94BA040C940805B9
:100050000C948B000C948B000C948B000C948B00F4
:100060000C948B000C948B000000000024002700EF
:100070002A0000000000250028002B0000000000DE
:1000800023002600290004040404040404040202DA
:100090000202020203030303030301020408102007
:1000A0004080010204081020010204081020000012
:1000B0000007000201000003040600000000000029
:1000C00000008D00740611241FBECFEFD8E0DEBF04
:1000D000CDBF11E0A0E0B1E0E2E9F0E102C005909F
:1000E0000D92A235B107D9F712E0A2E5B1E001C047
:1000F0001D92AA31B107E1F710E0C6ECD0E004C0D0
:100100002297FE010E944308C23CD107C9F70E9412
:10011000CA060C9447080C940000CF92EF920F93FC
:1001200082E591E06CE04BE025E004E053E0E52E51
:1001300032E0C32E0E94E5020F91EF90CF90089518
:100140000F931F938EE00E94040462E070E00E940F
:10015000F8078B0182E591E060E040E00E94F80141
:1001600082E591E060E071E00E94D60782E591E0CF
:10017000B8014AE050E00E94C30788EF91E0B8015F
:100180004AE050E00E94C30768EC70E080E090E035
:100190000E946603023311059CF082E591E00E9403
:1001A000270289E061E00E94650482E591E060E059
:1001B00041E00E94F80182E591E066E071E012C042
:1001C00082E591E00E94270289E060E00E946504D8
:1001D00082E591E060E041E00E94F80182E591E073
:1001E00060E171E00E94D60764E170E080E090E099
:1001F0000E9466031F910F9108950F931F9302E5CC
:1002000011E0C80160E142E020E00E942F0288EF87
:1002100091E040E855E260E070E00E94430589E02B
:1002200061E00E942604C8016DE171E00E94D607DA
:10023000C80160E041E00E94F801C8016AE271E093
:100240000E94D60768EE73E080E090E00E946603AB
:10025000C8010E9427021F910F9108950F931F93C9
:100260008C01FC01868160E00E94650481E090E0E1
:100270000E94BF03F801868161E00E94650481E06D
:1002800090E00E94BF03F801868160E00E9465044F
:1002900084E690E00E94BF031F910F910895CF92D2
:1002A000DF92EF92FF920F931F93CF93DF93D82E9D
:1002B000C92E282F392FC9018C01C0E0D0E0E62ECD
:1002C000FF24F801878161E00E942604B7010C2E0B
:1002D00002C0759567950A94E2F76170F80187810D
:1002E0000E94650421960F5F1F4FC830D10549F762
:1002F0008D2D9C2D0E942E01DF91CF911F910F918A
:10030000FF90EF90DF90CF900895CF92DF92EF9221
:10031000FF920F931F93CF93DF93D82EC92E282FD0
:10032000392FC9018C01C0E0D0E0E62EFF24F8018E
:10033000878161E00E942604B7010C2E02C07595EA
:1003400067950A94E2F76170F80187810E9465045D
:1003500021960F5F1F4FC430D10549F78D2D9C2D7D
:100360000E942E01DF91CF911F910F91FF90EF908E
:10037000DF90CF9008951F93CF93DF93EC01162F5A
:100380008C81642F0E9465048D818F3F19F060E09D
:100390000E9465048F8584FF05C0CE01612F0E94F5
:1003A0004F010EC0612F70E084E0759567958A95C6
:1003B000E1F7CE010E948501CE01612F0E948501E7
:1003C000DF91CF911F91089541E00E94BB0181E030
:1003D00090E0089540E00E94BB010895FC0160890F
:1003E000862F8460808B6C60CF010E94EA010895A3
:1003F000DF93CF93CDB7DEB728970FB6F894DEBF63
:100400000FBECDBF9C01FE013196AAE3B1E088E0AA
:100410000D9001928150E1F7F9018389481710F09E
:10042000482F4150E42FF0E0EE0FFF1FEC0FFD1FAF
:100430008181680F6068C9010E94EA0128960FB6A1
:10044000F894DEBF0FBECDBFCF91DF91089561E07C
:100450000E94EA0180ED97E00E94BF030895CF93C8
:10046000DF93EC01423018F08F8588608F874B8BCB
:100470001C8A222329F0413019F48F8584608F87EC
:1004800080E593EC0E94BF038C8160E00E946504CC
:100490008E8160E00E9465048D818F3F19F060E0DD
:1004A0000E9465046F8564FD1DC0CE0163E00E945B
:1004B000850184E991E10E94BF03CE0163E00E94BF
:1004C000850184E991E10E94BF03CE0163E00E94AF
:1004D000850186E990E00E94BF03CE0162E00E94A0
:1004E000850116C06062CE010E94EA0184E991E1B3
:1004F0000E94BF036F856062CE010E94EA0186E917
:1005000090E00E94BF036F856062CE010E94EA0105
:100510006F856062CE010E94EA0184E0888BCE0183
:100520000E94EE01CE010E94270282E0898BCE015B
:1005300066E00E94EA01DF91CF9108956F927F9269
:100540008F92AF92CF92EF920F931F93DF93CF933F
:10055000CDB7DEB73C01162F842FF30144832583EA
:100560000683E782C086A18682869D8593879E85C5
:1005700094879F8595879889968761E00E942604D5
:10058000F30185818F3F19F061E00E942604F30199
:10059000868161E00E942604112319F0F301178679
:1005A00003C080E1F3018787C30160E141E020E0FF
:1005B0000E942F02CF91DF911F910F91EF90CF906A
:1005C000AF908F907F906F9008958F92AF92CF925F
:1005D000EF920F931F93CF93DF93DC01362F542FAD
:1005E000722F102FAE2C8C2C13961C921E921297E9
:1005F00086E391E011969C938E9300D000D0EDB7E6
:10060000FEB73196CDB7DEB71982118212821382FE
:10061000CD0161E0432F2FEF052FE72EC12E0E9461
:100620009E020F900F900F900F90DF91CF911F912E
:100630000F91EF90CF90AF908F9008951F920F92EF
:100640000FB60F9211242F933F938F939F93AF93E5
:10065000BF9380916B0190916C01A0916D01B0915D
:100660006E0130916F010196A11DB11D232F2D5FE9
:100670002D3720F02D570196A11DB11D20936F013C
:1006800080936B0190936C01A0936D01B0936E0108
:100690008091670190916801A0916901B0916A0110
:1006A0000196A11DB11D8093670190936801A093ED
:1006B0006901B0936A01BF91AF919F918F913F9172
:1006C0002F910F900FBE0F901F9018959B01AC01BA
:1006D0007FB7F8948091670190916801A0916901BA
:1006E000B0916A0166B5A89B05C06F3F19F00196ED
:1006F000A11DB11D7FBFBA2FA92F982F8827860F64
:10070000911DA11DB11D62E0880F991FAA1FBB1F7B
:100710006A95D1F7BC012DC0FFB7F89480916701AD
:1007200090916801A0916901B0916A01E6B5A89B1A
:1007300005C0EF3F19F00196A11DB11DFFBFBA2FF3
:10074000A92F982F88278E0F911DA11DB11DE2E0C2
:10075000880F991FAA1FBB1FEA95D1F7861B970B1D
:10076000885E9340C8F2215030404040504068516C
:100770007C4F211531054105510571F6089501970A
:1007800039F0880F991F880F991F02970197F1F789
:100790000895789484B5826084BD84B5816084BDF9
:1007A00085B5826085BD85B5816085BDEEE6F0E0EA
:1007B000808181608083E1E8F0E010828081826046
:1007C0008083808181608083E0E8F0E080818160C7
:1007D0008083E1EBF0E0808184608083E0EBF0E0F7
:1007E000808181608083EAE7F0E08081846080839B
:1007F0008081826080838081816080838081806845
:1008000080831092C1000895982F8E3008F09E507A
:100810009770809131018295880F880F807C892B99
:1008200080937C0080917A00806480937A0080912C
:100830007A0086FDFCCF2091780040917900942FBA
:1008400080E030E0282B392BC9010895CF93DF9346
:10085000482F50E0CA0186569F4FFC0134914A57F9
:100860005F4FFA018491882369F190E0880F991F06
:10087000FC01E859FF4FA591B491FC01EE58FF4FE0
:10088000C591D491662351F42FB7F8948C91932F8E
:10089000909589238C93888189230BC0623061F401
:1008A0002FB7F8948C91932F909589238C938881FE
:1008B000832B88832FBF06C09FB7F8948C91832B1E
:1008C0008C939FBFDF91CF910895482F50E0CA01CC
:1008D00082559F4FFC012491CA0186569F4FFC010F
:1008E00094914A575F4FFA013491332309F440C081
:1008F000222351F1233071F0243028F42130A1F06B
:10090000223011F514C02630B1F02730C1F0243068
:10091000D9F404C0809180008F7703C0809180005B
:100920008F7D8093800010C084B58F7702C084B51E
:100930008F7D84BD09C08091B0008F7703C0809106
:10094000B0008F7D8093B000E32FF0E0EE0FFF1F2B
:10095000EE58FF4FA591B4912FB7F894662321F478
:100960008C919095892302C08C91892B8C932FBFF9
:10097000089508951F920F920FB60F9211242F938E
:100980003F934F938F939F93EF93FF938091C0007A
:1009900082FD1DC04091C6002091B0013091B1018F
:1009A0002F5F3F4F2F7330708091B2019091B30150
:1009B0002817390771F0E091B001F091B101E059C9
:1009C000FE4F40833093B1012093B00102C080916B
:1009D000C600FF91EF919F918F914F913F912F9181
:1009E0000F900FBE0F901F901895E0910402F091A8
:1009F0000502E05CFF4F8191919120813181821B42
:100A0000930B8F739070892B11F00E94B904089595
:100A10001F920F920FB60F9211242F933F938F9333
:100A20009F93EF93FF932091F4013091F501809112
:100A3000F6019091F7012817390731F48091C10030
:100A40008F7D8093C10014C0E091F601F091F70111
:100A5000EC54FE4F20818091F6019091F7010196B0
:100A60008F7390709093F7018093F6012093C600E6
:100A7000FF91EF919F918F913F912F910F900FBE1A
:100A80000F901F901895AF92BF92DF92EF92FF9256
:100A90000F931F93CF93DF93EC017A018B01DD2439
:100AA000403081EE580780E0680780E0780711F059
:100AB000DD24D39491E0A92EB12CEC89FD89DD20B1
:100AC00069F0C50108A002C0880F991F0A94E2F7D7
:100AD000808360E079E08DE390E005C0108260E8FB
:100AE00074E88EE190E0A80197010E940B08215064
:100AF000304040405040569547953795279580E1C6
:100B00002030380720F0DD2011F0DD24D6CFE88931
:100B1000F9893083EA89FB89208319A2EE89FF894C
:100B2000408121E030E0C9010C8C02C0880F991F80
:100B30000A94E2F7482B4083EE89FF894081C9017E
:100B40000D8C02C0880F991F0A94E2F7482B40834E
:100B5000EE89FF894081C9010E8C02C0880F991F60
:100B60000A94E2F7482B4083EE89FF8980810F8C3D
:100B700002C0220F331F0A94E2F720952823208316
:100B8000DF91CF911F910F91FF90EF90DF90BF9079
:100B9000AF900895DC011C96ED91FC911D97E05CEF
:100BA000FF4F2191319180819181281B390B2F7347
:100BB0003070C9010895DC011C96ED91FC911D97E0
:100BC000E05CFF4F20813181E054F040DF01AE5BFB
:100BD000BF4F8D919C9111972817390719F42FEF6A
:100BE0003FEF07C08D919C91E80FF91F8081282F5E
:100BF00030E0C9010895DC011C96ED91FC911D9730
:100C0000E05CFF4F20813181E054F040DF01AE5BBA
:100C1000BF4F8D919C9111972817390719F42FEF29
:100C20003FEF10C08D919C911197E80FF91F208123
:100C30008D919C91119701968F73907011969C9352
:100C40008E9330E0C9010895DC0191968C919197C3
:100C5000882339F05496ED91FC915597808186FF59
:100C6000F9CF91961C920895CF93DF93EC01EE8516
:100C7000FF85E05CFF4F20813181E054F0402F5F21
:100C80003F4F2F733070DF01AE5BBF4F8D919C9152
:100C9000119728173907D1F3E05CFF4F80819181CC
:100CA000E054F040E80FF91F6083EE85FF85E05CBB
:100CB000FF4F31832083EE89FF89208181E090E01E
:100CC0000F8C02C0880F991F0A94E2F7282B20830B
:100CD00081E089A3EC89FD8980818064808381E043
:100CE00090E0DF91CF9108951092FB011092FA01EC
:100CF00088EE93E0A0E0B0E08093FC019093FD01CA
:100D0000A093FE01B093FF0186E491E09093F90176
:100D10008093F80180E791E09093050280930402AC
:100D200084EB91E0909307028093060285EC90E0BB
:100D3000909309028093080284EC90E090930B0258
:100D400080930A0280EC90E090930D0280930C0255
:100D500081EC90E090930F0280930E0282EC90E081
:100D6000909311028093100286EC90E0909313020E
:100D70008093120284E08093140283E08093150232
:100D800087E08093160285E08093170281E08093CC
:100D900018020895CF93DF930E94C9030E94FD00BB
:100DA000C5EFD4E00E94A0002097E1F30E94F50473
:100DB000F9CFCF92DF92EF92FF920F931F93CF93D1
:100DC000DF937C016B018A01C0E0D0E00FC0D60147
:100DD0006D916D01D701ED91FC910190F081E02DB5
:100DE000C7010995C80FD91F015010400115110501
:100DF00071F7CE01DF91CF911F910F91FF90EF908E
:100E0000DF90CF900895CF93DF93EC0161157105CA
:100E100019F420E030E00FC0DB010D900020E9F76D
:100E20001197A61BB70BE881F9810280F381E02DB1
:100E3000AD0109959C01C901DF91CF9108954F92B1
:100E40005F927F928F929F92AF92BF92CF92DF92EA
:100E5000EF92FF920F931F93DF93CF93CDB7DEB73F
:100E6000A1970FB6F894DEBF0FBECDBF2C01742E34
:100E7000CB01223008F42AE019A231E2C32ED12C92
:100E8000CC0EDD1E822E9924AA24BB24672D752F3B
:100E9000A50194010E940B0879018A01C801B701DC
:100EA000A50194010E94D907472D461B0894C1084B
:100EB000D1084A3014F4405D01C0495CF60140831A
:100EC000E114F1040105110521F07E2C5F2DC8010C
:100ED000DDCFC201B6010E940307A1960FB6F894B8
:100EE000DEBF0FBECDBFCF91DF911F910F91FF905D
:100EF000EF90DF90CF90BF90AF909F908F907F90BA
:100F00005F904F900895CF92DF92EF92FF920F93F0
:100F10001F93CF93DF93EC016A017B01211531050B
:100F200041F4E881F9810190F081E02D642F099569
:100F30001FC02A303105D1F477FF17C0E881F9814D
:100F40000190F081E02D6DE209958C014427552731
:100F5000BA014C195D096E097F09CE012AE00E9491
:100F60001F079801280F391F04C02AE00E941F079D
:100F70009C01C901DF91CF911F910F91FF90EF90DC
:100F8000DF90CF900895EF92FF920F931F937B0114
:100F90009A010027F7FC0095102FB801A7010E94C5
:100FA00083071F910F91FF90EF9008950E94030710
:100FB0000895629FD001739FF001829FE00DF11DA3
:100FC000649FE00DF11D929FF00D839FF00D749FC3
:100FD000F00D659FF00D9927729FB00DE11DF91F6F
:100FE000639FB00DE11DF91FBD01CF0111240895CC
:100FF00097FB092E07260AD077FD04D02ED006D005
:1010000000201AF4709561957F4F0895F6F790953A
:1010100081959F4F0895A1E21A2EAA1BBB1BFD01CB
:101020000DC0AA1FBB1FEE1FFF1FA217B307E407C7
:10103000F50720F0A21BB30BE40BF50B661F771F1F
:10104000881F991F1A9469F76095709580959095FF
:101050009B01AC01BD01CF010895AA1BBB1B51E14F
:1010600007C0AA1FBB1FA617B70710F0A61BB70B18
:10107000881F991F5A95A9F780959095BC01CD01BD
:101080000895EE0FFF1F0590F491E02D0994F89458
:02109000FFCF90
:1010920054454D503A004F5645522054454D50004C
:1010A2004E4F524D414C2054454D5020004C4D3333
:1010B200352052454144494E470053797374656D5A
:1010C200000100000000E401D90600004000140005
:1010D2005400000000003406D906CA05FB05DB05F2
:0210E2002406E2
:00000001FF
